{
  "contractName": "encodedfunctions",
  "abi": [
    {
      "constant": true,
      "inputs": [
        {
          "name": "",
          "type": "address"
        }
      ],
      "name": "balances",
      "outputs": [
        {
          "name": "",
          "type": "uint256"
        }
      ],
      "payable": false,
      "stateMutability": "view",
      "type": "function"
    },
    {
      "constant": true,
      "inputs": [],
      "name": "thRun",
      "outputs": [
        {
          "name": "",
          "type": "bool"
        }
      ],
      "payable": false,
      "stateMutability": "view",
      "type": "function"
    },
    {
      "constant": true,
      "inputs": [],
      "name": "owner",
      "outputs": [
        {
          "name": "",
          "type": "address"
        }
      ],
      "payable": false,
      "stateMutability": "view",
      "type": "function"
    },
    {
      "constant": true,
      "inputs": [],
      "name": "run",
      "outputs": [
        {
          "name": "",
          "type": "bool"
        }
      ],
      "payable": false,
      "stateMutability": "view",
      "type": "function"
    },
    {
      "constant": true,
      "inputs": [],
      "name": "paeRun",
      "outputs": [
        {
          "name": "",
          "type": "bool"
        }
      ],
      "payable": false,
      "stateMutability": "view",
      "type": "function"
    },
    {
      "constant": true,
      "inputs": [],
      "name": "lopRun",
      "outputs": [
        {
          "name": "",
          "type": "bool"
        }
      ],
      "payable": false,
      "stateMutability": "view",
      "type": "function"
    },
    {
      "inputs": [],
      "payable": false,
      "stateMutability": "nonpayable",
      "type": "constructor"
    },
    {
      "anonymous": false,
      "inputs": [
        {
          "indexed": false,
          "name": "_str",
          "type": "string"
        },
        {
          "indexed": false,
          "name": "_value",
          "type": "uint256"
        },
        {
          "indexed": false,
          "name": "_tf",
          "type": "bool"
        },
        {
          "indexed": false,
          "name": "_str2",
          "type": "string"
        }
      ],
      "name": "theEmitterEvent",
      "type": "event"
    },
    {
      "constant": false,
      "inputs": [
        {
          "name": "_input",
          "type": "uint8"
        }
      ],
      "name": "toEncode",
      "outputs": [],
      "payable": false,
      "stateMutability": "nonpayable",
      "type": "function"
    },
    {
      "constant": false,
      "inputs": [],
      "name": "decode",
      "outputs": [],
      "payable": false,
      "stateMutability": "nonpayable",
      "type": "function"
    },
    {
      "constant": false,
      "inputs": [
        {
          "name": "_encoded",
          "type": "bytes32"
        }
      ],
      "name": "decodeAttTwo",
      "outputs": [],
      "payable": false,
      "stateMutability": "nonpayable",
      "type": "function"
    },
    {
      "constant": false,
      "inputs": [
        {
          "name": "_function",
          "type": "bytes32"
        },
        {
          "name": "_callData",
          "type": "bytes32"
        }
      ],
      "name": "seperationOfCallDataAndFunction",
      "outputs": [],
      "payable": false,
      "stateMutability": "nonpayable",
      "type": "function"
    },
    {
      "constant": false,
      "inputs": [
        {
          "name": "_value",
          "type": "uint256"
        },
        {
          "name": "_sender",
          "type": "address"
        }
      ],
      "name": "lotsOfParam",
      "outputs": [],
      "payable": false,
      "stateMutability": "nonpayable",
      "type": "function"
    },
    {
      "constant": false,
      "inputs": [
        {
          "name": "_value",
          "type": "uint256"
        },
        {
          "name": "_sender",
          "type": "address"
        },
        {
          "name": "_encodedFunction",
          "type": "bytes"
        }
      ],
      "name": "paramsAndEncoded",
      "outputs": [],
      "payable": false,
      "stateMutability": "nonpayable",
      "type": "function"
    },
    {
      "constant": false,
      "inputs": [
        {
          "name": "_encoded",
          "type": "bytes"
        }
      ],
      "name": "theThing",
      "outputs": [],
      "payable": false,
      "stateMutability": "nonpayable",
      "type": "function"
    },
    {
      "constant": false,
      "inputs": [
        {
          "name": "_str",
          "type": "string"
        },
        {
          "name": "_value",
          "type": "uint256"
        },
        {
          "name": "_tf",
          "type": "bool"
        },
        {
          "name": "_str2",
          "type": "string"
        }
      ],
      "name": "theEmmiter",
      "outputs": [],
      "payable": false,
      "stateMutability": "nonpayable",
      "type": "function"
    }
  ],
  "bytecode": "0x608060405260008060006101000a81548160ff02191690831515021790555060008060016101000a81548160ff02191690831515021790555060008060026101000a81548160ff02191690831515021790555060008060036101000a81548160ff02191690831515021790555034801561007857600080fd5b5033600060046101000a81548173ffffffffffffffffffffffffffffffffffffffff021916908373ffffffffffffffffffffffffffffffffffffffff1602179055506109a1806100c96000396000f3006080604052600436106100d0576000357c0100000000000000000000000000000000000000000000000000000000900463ffffffff16806323841c8d146100d557806327e235e31461013e5780632a716c31146101955780636de1dda1146101c55780637b2e1b8d1461028a5780638778ff60146102d75780638da5cb5b146103065780638f0ec31b1461035d57806395f70b951461038e578063c040622614610421578063c0f8940c14610450578063c324672e14610467578063cd275a2c146104a6578063e24e400a146104d5575b600080fd5b3480156100e157600080fd5b5061013c600480360381019080803590602001908201803590602001908080601f0160208091040260200160405190810160405280939291908181526020018383808284378201915050505050509192919290505050610504565b005b34801561014a57600080fd5b5061017f600480360381019080803573ffffffffffffffffffffffffffffffffffffffff169060200190929190505050610610565b6040518082815260200191505060405180910390f35b3480156101a157600080fd5b506101c3600480360381019080803560ff169060200190929190505050610628565b005b3480156101d157600080fd5b50610288600480360381019080803590602001908201803590602001908080601f016020809104026020016040519081016040528093929190818152602001838380828437820191505050505050919291929080359060200190929190803515159060200190929190803590602001908201803590602001908080601f0160208091040260200160405190810160405280939291908181526020018383808284378201915050505050509192919290505050610645565b005b34801561029657600080fd5b506102d560048036038101908080359060200190929190803573ffffffffffffffffffffffffffffffffffffffff169060200190929190505050610768565b005b3480156102e357600080fd5b506102ec6107d4565b604051808215151515815260200191505060405180910390f35b34801561031257600080fd5b5061031b6107e7565b604051808273ffffffffffffffffffffffffffffffffffffffff1673ffffffffffffffffffffffffffffffffffffffff16815260200191505060405180910390f35b34801561036957600080fd5b5061038c600480360381019080803560001916906020019092919050505061080d565b005b34801561039a57600080fd5b5061041f60048036038101908080359060200190929190803573ffffffffffffffffffffffffffffffffffffffff169060200190929190803590602001908201803590602001908080601f0160208091040260200160405190810160405280939291908181526020018383808284378201915050505050509192919290505050610859565b005b34801561042d57600080fd5b5061043661085e565b604051808215151515815260200191505060405180910390f35b34801561045c57600080fd5b50610465610870565b005b34801561047357600080fd5b506104a4600480360381019080803560001916906020019092919080356000191690602001909291905050506108f2565b005b3480156104b257600080fd5b506104bb61094f565b604051808215151515815260200191505060405180910390f35b3480156104e157600080fd5b506104ea610962565b604051808215151515815260200191505060405180910390f35b600060049054906101000a900473ffffffffffffffffffffffffffffffffffffffff1673ffffffffffffffffffffffffffffffffffffffff163373ffffffffffffffffffffffffffffffffffffffff1614151561056057600080fd5b3073ffffffffffffffffffffffffffffffffffffffff168160405180828051906020019080838360005b838110156105a557808201518184015260208101905061058a565b50505050905090810190601f1680156105d25780820380516001836020036101000a031916815260200191505b509150506000604051808303816000865af191505015156105f257600080fd5b6001600060036101000a81548160ff02191690831515021790555050565b60016020528060005260406000206000915090505481565b60016000806101000a81548160ff02191690831515021790555050565b7fec17f753f7c50ba273b9cb89f59bf15c7ce79753bb99bba89c65064316a584168484848460405180806020018581526020018415151515815260200180602001838103835287818151815260200191508051906020019080838360005b838110156106be5780820151818401526020810190506106a3565b50505050905090810190601f1680156106eb5780820380516001836020036101000a031916815260200191505b50838103825284818151815260200191508051906020019080838360005b83811015610724578082015181840152602081019050610709565b50505050905090810190601f1680156107515780820380516001836020036101000a031916815260200191505b50965050505050505060405180910390a150505050565b81600160008373ffffffffffffffffffffffffffffffffffffffff1673ffffffffffffffffffffffffffffffffffffffff168152602001908152602001600020600082825403925050819055506001600060016101000a81548160ff0219169083151502179055505050565b600060039054906101000a900460ff1681565b600060049054906101000a900473ffffffffffffffffffffffffffffffffffffffff1681565b3073ffffffffffffffffffffffffffffffffffffffff16816040518082600019166000191681526020019150506000604051808303816000865af1915050151561085657600080fd5b50565b505050565b6000809054906101000a900460ff1681565b3073ffffffffffffffffffffffffffffffffffffffff1660405180807f746f456e636f64652875696e7438290000000000000000000000000000000000815250600f019050604051809103902060576040518083600019166000191681526020018260ff168152602001925050506000604051808303816000865af191505050565b3073ffffffffffffffffffffffffffffffffffffffff1682826040518083600019166000191681526020018260001916600019168152602001925050506000604051808303816000865af1915050151561094b57600080fd5b5050565b600060029054906101000a900460ff1681565b600060019054906101000a900460ff16815600a165627a7a72305820b2f9ef8039706e38cbbdc2c9d82df24fad0f701344cc085b3119686e12749c160029",
  "source": "pragma solidity 0.4.24;\r\n\r\ncontract encodedfunctions {\r\n    bool public run = false;\r\n    bool public lopRun = false;\r\n    bool public paeRun = false;\r\n    bool public thRun = false;\r\n    address public owner;\r\n    mapping(address => uint256) public balances;\r\n\r\n    constructor() public {\r\n        owner = msg.sender;\r\n    }\r\n    \r\n    function toEncode(uint8 _input) public {\r\n        _input + 2;\r\n        run = true;\r\n    }\r\n\r\n    function decode() public {\r\n        this.call(bytes32(keccak256(\"toEncode(uint8)\")), 87);\r\n    }\r\n    \r\n    function decodeAttTwo(bytes32 _encoded) public {\r\n        require(this.call(_encoded));\r\n    }\r\n\r\n    function seperationOfCallDataAndFunction(\r\n        bytes32 _function, \r\n        bytes32 _callData\r\n    ) \r\n        public \r\n    {\r\n        require(this.call(_function, _callData));\r\n    }\r\n\r\n    function lotsOfParam(uint256 _value, address _sender) public {\r\n        balances[_sender] -= _value;\r\n        lopRun = true;\r\n    }\r\n\r\n    modifier onlyAnAddress() {\r\n        require(msg.sender == owner);\r\n        _;\r\n    }\r\n\r\n    function paramsAndEncoded(\r\n        uint _value, \r\n        address _sender, \r\n        bytes _encodedFunction\r\n    ) \r\n        public \r\n    {\r\n        /**we want to be able to see which function is being called\r\n            and that the call is autherized: \r\n            Ideas: \r\n                including the msg.sender in the encoded function\r\n            check:\r\n                need to check that the authorization can be done\r\n                implicity \r\n                    make a onlyAddress function and then \r\n                    try call it from the correct and incorect \r\n                    address \r\n        */\r\n    }\r\n\r\n    function theThing(bytes _encoded) public onlyAnAddress() {\r\n        require(this.call(_encoded));\r\n        thRun = true;\r\n        //this must be the function that dose the \r\n        //encoded thing. \r\n        //check that it cannot be done by wrong address\r\n        //also that it can be doen by correct address.\r\n    }\r\n\r\n    event theEmitterEvent(string _str, uint _value, bool _tf, string _str2);\r\n    function theEmmiter(\r\n        string _str, \r\n        uint _value, \r\n        bool _tf, \r\n        string _str2\r\n    )\r\n        public\r\n    {\r\n        emit theEmitterEvent(_str, _value, _tf, _str2);\r\n    }\r\n\r\n\r\n   /**\r\n    fallback(uint value, address sender, bytes encodedFunction)\r\n    this.call(extractedFunction, extractedCalldata) (edited)\r\n    So instead of passing the calldata variable by variable, \r\n    we need to pass the raw encoded data and hope the function runs\r\n\r\n\r\n    balances[_sender] -= _value;\r\n        paeRun = true;\r\n    */\r\n}",
  "sourcePath": "C:\\Users\\Veronica Coutts\\Desktop\\Desktop\\Work\\LinumLabs\\encoded-experiment\\contracts\\encodedFunction.sol",
  "compiler": {
    "name": "solc",
    "version": "0.4.24+commit.e67f0147.Emscripten.clang"
  },
  "schemaVersion": "2.0.1",
  "updatedAt": "2018-11-21T08:58:30.173Z"
}