{
  "contractName": "encodedfunctions",
  "abi": [
    {
      "constant": true,
      "inputs": [
        {
          "name": "",
          "type": "address"
        }
      ],
      "name": "balances",
      "outputs": [
        {
          "name": "",
          "type": "uint256"
        }
      ],
      "payable": false,
      "stateMutability": "view",
      "type": "function"
    },
    {
      "constant": true,
      "inputs": [],
      "name": "run",
      "outputs": [
        {
          "name": "",
          "type": "bool"
        }
      ],
      "payable": false,
      "stateMutability": "view",
      "type": "function"
    },
    {
      "constant": true,
      "inputs": [],
      "name": "lopRun",
      "outputs": [
        {
          "name": "",
          "type": "bool"
        }
      ],
      "payable": false,
      "stateMutability": "view",
      "type": "function"
    },
    {
      "inputs": [],
      "payable": false,
      "stateMutability": "nonpayable",
      "type": "constructor"
    },
    {
      "constant": false,
      "inputs": [
        {
          "name": "_input",
          "type": "uint8"
        }
      ],
      "name": "toEncode",
      "outputs": [],
      "payable": false,
      "stateMutability": "nonpayable",
      "type": "function"
    },
    {
      "constant": false,
      "inputs": [],
      "name": "decode",
      "outputs": [],
      "payable": false,
      "stateMutability": "nonpayable",
      "type": "function"
    },
    {
      "constant": false,
      "inputs": [
        {
          "name": "_encoded",
          "type": "bytes32"
        }
      ],
      "name": "decodeAttTwo",
      "outputs": [],
      "payable": false,
      "stateMutability": "nonpayable",
      "type": "function"
    },
    {
      "constant": false,
      "inputs": [
        {
          "name": "_value",
          "type": "uint256"
        },
        {
          "name": "_sender",
          "type": "address"
        }
      ],
      "name": "lotsOfParam",
      "outputs": [],
      "payable": false,
      "stateMutability": "nonpayable",
      "type": "function"
    }
  ],
  "bytecode": "0x608060405260008060006101000a81548160ff02191690831515021790555060008060016101000a81548160ff02191690831515021790555034801561004457600080fd5b506103c8806100546000396000f300608060405260043610610083576000357c0100000000000000000000000000000000000000000000000000000000900463ffffffff16806327e235e3146100885780632a716c31146100df5780637b2e1b8d1461010f5780638f0ec31b1461015c578063c04062261461018d578063c0f8940c146101bc578063e24e400a146101d3575b600080fd5b34801561009457600080fd5b506100c9600480360381019080803573ffffffffffffffffffffffffffffffffffffffff169060200190929190505050610202565b6040518082815260200191505060405180910390f35b3480156100eb57600080fd5b5061010d600480360381019080803560ff16906020019092919050505061021a565b005b34801561011b57600080fd5b5061015a60048036038101908080359060200190929190803573ffffffffffffffffffffffffffffffffffffffff169060200190929190505050610237565b005b34801561016857600080fd5b5061018b60048036038101908080356000191690602001909291905050506102a3565b005b34801561019957600080fd5b506101a26102f5565b604051808215151515815260200191505060405180910390f35b3480156101c857600080fd5b506101d1610307565b005b3480156101df57600080fd5b506101e8610389565b604051808215151515815260200191505060405180910390f35b60016020528060005260406000206000915090505481565b60016000806101000a81548160ff02191690831515021790555050565b81600160008373ffffffffffffffffffffffffffffffffffffffff1673ffffffffffffffffffffffffffffffffffffffff168152602001908152602001600020600082825403925050819055506001600060016101000a81548160ff0219169083151502179055505050565b60003073ffffffffffffffffffffffffffffffffffffffff16826040518082600019166000191681526020019150506000604051808303816000865af191505090508015156102f157600080fd5b5050565b6000809054906101000a900460ff1681565b3073ffffffffffffffffffffffffffffffffffffffff1660405180807f746f456e636f64652875696e7438290000000000000000000000000000000000815250600f019050604051809103902060576040518083600019166000191681526020018260ff168152602001925050506000604051808303816000865af191505050565b600060019054906101000a900460ff16815600a165627a7a72305820edc8f58931f50ef22bb7d9447ece31064dcb24d31c5bad76c9eff9a7795686080029",
  "source": "pragma solidity 0.4.24;\r\n\r\ncontract encodedfunctions {\r\n    bool public run = false;\r\n    bool public lopRun = false;\r\n    mapping(address => uint256) public balances;\r\n\r\n    constructor() public {\r\n\r\n    }\r\n    \r\n    function toEncode(uint8 _input) public {\r\n        _input + 2;\r\n        run = true;\r\n    }\r\n\r\n    function decode() public {\r\n        this.call(bytes32(keccak256(\"toEncode(uint8)\")), 87);\r\n    }\r\n    \r\n    function decodeAttTwo(bytes32 _encoded) public {\r\n        bool passed = this.call(_encoded);\r\n        require(passed);\r\n    }\r\n\r\n    function lotsOfParam(uint256 _value, address _sender) public {\r\n        balances[_sender] -= _value;\r\n        lopRun = true;\r\n    }\r\n\r\n    /**\r\n    tokenFallback(uint value, address sender, bytes encodedFunction)\r\n    this.call(extractedFunction, extractedCalldata) \r\n        So instead of passing the calldata variable by variable, \r\n        we need to pass the raw encoded data and hope the function runs\r\n     */\r\n}",
  "sourcePath": "C:\\Users\\Veronica Coutts\\Desktop\\Desktop\\Work\\LinumLabs\\encoded-experiment\\contracts\\encodedFunction.sol",
  "compiler": {
    "name": "solc",
    "version": "0.4.24+commit.e67f0147.Emscripten.clang"
  },
  "schemaVersion": "2.0.1",
  "updatedAt": "2018-11-20T15:42:32.314Z"
}